{
  "_format": "hh-sol-artifact-1",
  "contractName": "PancakeZapV1",
  "sourceName": "contracts/PancakeZapV1.sol",
  "abi": [
    {
      "inputs": [
        {
          "internalType": "address",
          "name": "_WBNBAddress",
          "type": "address"
        },
        {
          "internalType": "address",
          "name": "_pancakeRouter",
          "type": "address"
        },
        {
          "internalType": "uint256",
          "name": "_maxZapReverseRatio",
          "type": "uint256"
        }
      ],
      "stateMutability": "nonpayable",
      "type": "constructor"
    },
    {
      "anonymous": false,
      "inputs": [
        {
          "indexed": true,
          "internalType": "address",
          "name": "tokenAddress",
          "type": "address"
        },
        {
          "indexed": false,
          "internalType": "uint256",
          "name": "amountTokens",
          "type": "uint256"
        }
      ],
      "name": "AdminTokenRecovery",
      "type": "event"
    },
    {
      "anonymous": false,
      "inputs": [
        {
          "indexed": false,
          "internalType": "uint256",
          "name": "maxZapReverseRatio",
          "type": "uint256"
        }
      ],
      "name": "NewMaxZapReverseRatio",
      "type": "event"
    },
    {
      "anonymous": false,
      "inputs": [
        {
          "indexed": true,
          "internalType": "address",
          "name": "previousOwner",
          "type": "address"
        },
        {
          "indexed": true,
          "internalType": "address",
          "name": "newOwner",
          "type": "address"
        }
      ],
      "name": "OwnershipTransferred",
      "type": "event"
    },
    {
      "anonymous": false,
      "inputs": [
        {
          "indexed": true,
          "internalType": "address",
          "name": "tokenToZap",
          "type": "address"
        },
        {
          "indexed": true,
          "internalType": "address",
          "name": "lpToken",
          "type": "address"
        },
        {
          "indexed": false,
          "internalType": "uint256",
          "name": "tokenAmountIn",
          "type": "uint256"
        },
        {
          "indexed": false,
          "internalType": "uint256",
          "name": "lpTokenAmountReceived",
          "type": "uint256"
        },
        {
          "indexed": true,
          "internalType": "address",
          "name": "user",
          "type": "address"
        }
      ],
      "name": "ZapIn",
      "type": "event"
    },
    {
      "anonymous": false,
      "inputs": [
        {
          "indexed": true,
          "internalType": "address",
          "name": "token0ToZap",
          "type": "address"
        },
        {
          "indexed": true,
          "internalType": "address",
          "name": "token1ToZap",
          "type": "address"
        },
        {
          "indexed": false,
          "internalType": "address",
          "name": "lpToken",
          "type": "address"
        },
        {
          "indexed": false,
          "internalType": "uint256",
          "name": "token0AmountIn",
          "type": "uint256"
        },
        {
          "indexed": false,
          "internalType": "uint256",
          "name": "token1AmountIn",
          "type": "uint256"
        },
        {
          "indexed": false,
          "internalType": "uint256",
          "name": "lpTokenAmountReceived",
          "type": "uint256"
        },
        {
          "indexed": true,
          "internalType": "address",
          "name": "user",
          "type": "address"
        }
      ],
      "name": "ZapInRebalancing",
      "type": "event"
    },
    {
      "anonymous": false,
      "inputs": [
        {
          "indexed": true,
          "internalType": "address",
          "name": "lpToken",
          "type": "address"
        },
        {
          "indexed": true,
          "internalType": "address",
          "name": "tokenToReceive",
          "type": "address"
        },
        {
          "indexed": false,
          "internalType": "uint256",
          "name": "lpTokenAmount",
          "type": "uint256"
        },
        {
          "indexed": false,
          "internalType": "uint256",
          "name": "tokenAmountReceived",
          "type": "uint256"
        },
        {
          "indexed": true,
          "internalType": "address",
          "name": "user",
          "type": "address"
        }
      ],
      "name": "ZapOut",
      "type": "event"
    },
    {
      "inputs": [],
      "name": "MAX_INT",
      "outputs": [
        {
          "internalType": "uint256",
          "name": "",
          "type": "uint256"
        }
      ],
      "stateMutability": "view",
      "type": "function"
    },
    {
      "inputs": [],
      "name": "MINIMUM_AMOUNT",
      "outputs": [
        {
          "internalType": "uint256",
          "name": "",
          "type": "uint256"
        }
      ],
      "stateMutability": "view",
      "type": "function"
    },
    {
      "inputs": [],
      "name": "WBNB",
      "outputs": [
        {
          "internalType": "contract IWETH",
          "name": "",
          "type": "address"
        }
      ],
      "stateMutability": "view",
      "type": "function"
    },
    {
      "inputs": [
        {
          "internalType": "address",
          "name": "_token0ToZap",
          "type": "address"
        },
        {
          "internalType": "address",
          "name": "_token1ToZap",
          "type": "address"
        },
        {
          "internalType": "uint256",
          "name": "_token0AmountIn",
          "type": "uint256"
        },
        {
          "internalType": "uint256",
          "name": "_token1AmountIn",
          "type": "uint256"
        },
        {
          "internalType": "address",
          "name": "_lpToken",
          "type": "address"
        }
      ],
      "name": "estimateZapInRebalancingSwap",
      "outputs": [
        {
          "internalType": "uint256",
          "name": "swapAmountIn",
          "type": "uint256"
        },
        {
          "internalType": "uint256",
          "name": "swapAmountOut",
          "type": "uint256"
        },
        {
          "internalType": "bool",
          "name": "sellToken0",
          "type": "bool"
        }
      ],
      "stateMutability": "view",
      "type": "function"
    },
    {
      "inputs": [
        {
          "internalType": "address",
          "name": "_tokenToZap",
          "type": "address"
        },
        {
          "internalType": "uint256",
          "name": "_tokenAmountIn",
          "type": "uint256"
        },
        {
          "internalType": "address",
          "name": "_lpToken",
          "type": "address"
        }
      ],
      "name": "estimateZapInSwap",
      "outputs": [
        {
          "internalType": "uint256",
          "name": "swapAmountIn",
          "type": "uint256"
        },
        {
          "internalType": "uint256",
          "name": "swapAmountOut",
          "type": "uint256"
        },
        {
          "internalType": "address",
          "name": "swapTokenOut",
          "type": "address"
        }
      ],
      "stateMutability": "view",
      "type": "function"
    },
    {
      "inputs": [
        {
          "internalType": "address",
          "name": "_lpToken",
          "type": "address"
        },
        {
          "internalType": "uint256",
          "name": "_lpTokenAmount",
          "type": "uint256"
        },
        {
          "internalType": "address",
          "name": "_tokenToReceive",
          "type": "address"
        }
      ],
      "name": "estimateZapOutSwap",
      "outputs": [
        {
          "internalType": "uint256",
          "name": "swapAmountIn",
          "type": "uint256"
        },
        {
          "internalType": "uint256",
          "name": "swapAmountOut",
          "type": "uint256"
        },
        {
          "internalType": "address",
          "name": "swapTokenOut",
          "type": "address"
        }
      ],
      "stateMutability": "view",
      "type": "function"
    },
    {
      "inputs": [],
      "name": "maxZapReverseRatio",
      "outputs": [
        {
          "internalType": "uint256",
          "name": "",
          "type": "uint256"
        }
      ],
      "stateMutability": "view",
      "type": "function"
    },
    {
      "inputs": [],
      "name": "owner",
      "outputs": [
        {
          "internalType": "address",
          "name": "",
          "type": "address"
        }
      ],
      "stateMutability": "view",
      "type": "function"
    },
    {
      "inputs": [],
      "name": "pancakeRouter",
      "outputs": [
        {
          "internalType": "contract IPancakeRouter02",
          "name": "",
          "type": "address"
        }
      ],
      "stateMutability": "view",
      "type": "function"
    },
    {
      "inputs": [
        {
          "internalType": "address",
          "name": "_tokenAddress",
          "type": "address"
        },
        {
          "internalType": "uint256",
          "name": "_tokenAmount",
          "type": "uint256"
        }
      ],
      "name": "recoverWrongTokens",
      "outputs": [],
      "stateMutability": "nonpayable",
      "type": "function"
    },
    {
      "inputs": [],
      "name": "renounceOwnership",
      "outputs": [],
      "stateMutability": "nonpayable",
      "type": "function"
    },
    {
      "inputs": [
        {
          "internalType": "address",
          "name": "newOwner",
          "type": "address"
        }
      ],
      "name": "transferOwnership",
      "outputs": [],
      "stateMutability": "nonpayable",
      "type": "function"
    },
    {
      "inputs": [
        {
          "internalType": "uint256",
          "name": "_maxZapInverseRatio",
          "type": "uint256"
        }
      ],
      "name": "updateMaxZapInverseRatio",
      "outputs": [],
      "stateMutability": "nonpayable",
      "type": "function"
    },
    {
      "inputs": [
        {
          "internalType": "address",
          "name": "_lpToken",
          "type": "address"
        },
        {
          "internalType": "uint256",
          "name": "_tokenAmountOutMin",
          "type": "uint256"
        }
      ],
      "name": "zapInBNB",
      "outputs": [],
      "stateMutability": "payable",
      "type": "function"
    },
    {
      "inputs": [
        {
          "internalType": "address",
          "name": "_token1ToZap",
          "type": "address"
        },
        {
          "internalType": "uint256",
          "name": "_token1AmountIn",
          "type": "uint256"
        },
        {
          "internalType": "address",
          "name": "_lpToken",
          "type": "address"
        },
        {
          "internalType": "uint256",
          "name": "_tokenAmountInMax",
          "type": "uint256"
        },
        {
          "internalType": "uint256",
          "name": "_tokenAmountOutMin",
          "type": "uint256"
        },
        {
          "internalType": "bool",
          "name": "_isToken0Sold",
          "type": "bool"
        }
      ],
      "name": "zapInBNBRebalancing",
      "outputs": [],
      "stateMutability": "payable",
      "type": "function"
    },
    {
      "inputs": [
        {
          "internalType": "address",
          "name": "_tokenToZap",
          "type": "address"
        },
        {
          "internalType": "uint256",
          "name": "_tokenAmountIn",
          "type": "uint256"
        },
        {
          "internalType": "address",
          "name": "_lpToken",
          "type": "address"
        },
        {
          "internalType": "uint256",
          "name": "_tokenAmountOutMin",
          "type": "uint256"
        }
      ],
      "name": "zapInToken",
      "outputs": [],
      "stateMutability": "nonpayable",
      "type": "function"
    },
    {
      "inputs": [
        {
          "internalType": "address",
          "name": "_token0ToZap",
          "type": "address"
        },
        {
          "internalType": "address",
          "name": "_token1ToZap",
          "type": "address"
        },
        {
          "internalType": "uint256",
          "name": "_token0AmountIn",
          "type": "uint256"
        },
        {
          "internalType": "uint256",
          "name": "_token1AmountIn",
          "type": "uint256"
        },
        {
          "internalType": "address",
          "name": "_lpToken",
          "type": "address"
        },
        {
          "internalType": "uint256",
          "name": "_tokenAmountInMax",
          "type": "uint256"
        },
        {
          "internalType": "uint256",
          "name": "_tokenAmountOutMin",
          "type": "uint256"
        },
        {
          "internalType": "bool",
          "name": "_isToken0Sold",
          "type": "bool"
        }
      ],
      "name": "zapInTokenRebalancing",
      "outputs": [],
      "stateMutability": "nonpayable",
      "type": "function"
    },
    {
      "inputs": [
        {
          "internalType": "address",
          "name": "_lpToken",
          "type": "address"
        },
        {
          "internalType": "uint256",
          "name": "_lpTokenAmount",
          "type": "uint256"
        },
        {
          "internalType": "uint256",
          "name": "_tokenAmountOutMin",
          "type": "uint256"
        }
      ],
      "name": "zapOutBNB",
      "outputs": [],
      "stateMutability": "nonpayable",
      "type": "function"
    },
    {
      "inputs": [
        {
          "internalType": "address",
          "name": "_lpToken",
          "type": "address"
        },
        {
          "internalType": "address",
          "name": "_tokenToReceive",
          "type": "address"
        },
        {
          "internalType": "uint256",
          "name": "_lpTokenAmount",
          "type": "uint256"
        },
        {
          "internalType": "uint256",
          "name": "_tokenAmountOutMin",
          "type": "uint256"
        }
      ],
      "name": "zapOutToken",
      "outputs": [],
      "stateMutability": "nonpayable",
      "type": "function"
    },
    {
      "stateMutability": "payable",
      "type": "receive"
    }
  ],
  "bytecode": "0x60806040523480156200001157600080fd5b5060405162005a5138038062005a51833981016040819052620000349162000102565b6200003f3362000095565b60018055600680546001600160a01b039485166001600160a01b03199182168117909255600280548216909217909155600580549390941692811683179093556003805490931690911790915560045562000142565b600080546001600160a01b038381166001600160a01b0319831681178455604051919092169283917f8be0079c531659141344cd1fd0a4f28419497f9722a3daafe3b4186f6b6457e09190a35050565b80516001600160a01b0381168114620000fd57600080fd5b919050565b60008060006060848603121562000117578283fd5b6200012284620000e5565b92506200013260208501620000e5565b9150604084015190509250925092565b6158ff80620001526000396000f3fe6080604052600436106101485760003560e01c8063715018a6116100c05780638dd9500211610074578063c21ebd0711610059578063c21ebd0714610424578063e3ceb16b14610451578063f2fde38b1461046457600080fd5b80638dd95002146103d7578063b421e91e1461040457600080fd5b806384b73115116100a557806384b731151461034b57806387e3f21c1461036b5780638da5cb5b1461038b57600080fd5b8063715018a6146102f957806382c98b2d1461030e57600080fd5b80632f883da4116101175780633f138d4b116100fc5780633f138d4b146102a65780635cb88a3f146102c65780635fcbdaed146102d957600080fd5b80632f883da4146102355780633b0a48bb1461028657600080fd5b8063098d3228146101a25780630f4e4e63146101e9578063257d9bb8146101ff5780632b4652eb1461021557600080fd5b3661019d5760065473ffffffffffffffffffffffffffffffffffffffff16331461019b577f4e487b7100000000000000000000000000000000000000000000000000000000600052600160045260246000fd5b005b600080fd5b3480156101ae57600080fd5b506101d67fffffffffffffffffffffffffffffffffffffffffffffffffffffffffffffffff81565b6040519081526020015b60405180910390f35b3480156101f557600080fd5b506101d660045481565b34801561020b57600080fd5b506101d66103e881565b34801561022157600080fd5b5061019b6102303660046155f3565b610484565b34801561024157600080fd5b50610255610250366004615394565b610545565b60408051938452602084019290925273ffffffffffffffffffffffffffffffffffffffff16908201526060016101e0565b34801561029257600080fd5b506102556102a1366004615394565b610ab5565b3480156102b257600080fd5b5061019b6102c1366004615369565b610ef6565b61019b6102d4366004615369565b610fec565b3480156102e557600080fd5b5061019b6102f4366004615482565b61116f565b34801561030557600080fd5b5061019b6113df565b34801561031a57600080fd5b5061032e610329366004615287565b61146c565b6040805193845260208401929092521515908201526060016101e0565b34801561035757600080fd5b5061019b610366366004615242565b611c9e565b34801561037757600080fd5b5061019b6103863660046153d5565b611db7565b34801561039757600080fd5b5060005473ffffffffffffffffffffffffffffffffffffffff165b60405173ffffffffffffffffffffffffffffffffffffffff90911681526020016101e0565b3480156103e357600080fd5b506002546103b29073ffffffffffffffffffffffffffffffffffffffff1681565b34801561041057600080fd5b5061019b61041f3660046152e5565b611eda565b34801561043057600080fd5b506003546103b29073ffffffffffffffffffffffffffffffffffffffff1681565b61019b61045f36600461541c565b61201c565b34801561047057600080fd5b5061019b61047f36600461520a565b6121db565b60005473ffffffffffffffffffffffffffffffffffffffff16331461050a576040517f08c379a000000000000000000000000000000000000000000000000000000000815260206004820181905260248201527f4f776e61626c653a2063616c6c6572206973206e6f7420746865206f776e657260448201526064015b60405180910390fd5b60048190556040518181527fc7e29c44236bfea8bef0d337e382f5f27ec5bc4d425d82437f115f9b59d2ba799060200160405180910390a150565b6000806000808673ffffffffffffffffffffffffffffffffffffffff16630dfe16816040518163ffffffff1660e01b815260040160206040518083038186803b15801561059157600080fd5b505afa1580156105a5573d6000803e3d6000fd5b505050506040513d601f19601f820116820180604052508101906105c99190615226565b905060008773ffffffffffffffffffffffffffffffffffffffff1663d21220a76040518163ffffffff1660e01b815260040160206040518083038186803b15801561061357600080fd5b505afa158015610627573d6000803e3d6000fd5b505050506040513d601f19601f8201168201806040525081019061064b9190615226565b90508173ffffffffffffffffffffffffffffffffffffffff168673ffffffffffffffffffffffffffffffffffffffff1614806106b257508073ffffffffffffffffffffffffffffffffffffffff168673ffffffffffffffffffffffffffffffffffffffff16145b610718576040517f08c379a000000000000000000000000000000000000000000000000000000000815260206004820152601460248201527f5a61703a20546f6b656e206e6f7420696e204c500000000000000000000000006044820152606401610501565b6000808973ffffffffffffffffffffffffffffffffffffffff16630902f1ac6040518163ffffffff1660e01b815260040160606040518083038186803b15801561076157600080fd5b505afa158015610775573d6000803e3d6000fd5b505050506040513d601f19601f8201168201806040525081019061079991906155b0565b506dffffffffffffffffffffffffffff1691506dffffffffffffffffffffffffffff1691508773ffffffffffffffffffffffffffffffffffffffff168373ffffffffffffffffffffffffffffffffffffffff16141561094f5760008a73ffffffffffffffffffffffffffffffffffffffff166318160ddd6040518163ffffffff1660e01b815260040160206040518083038186803b15801561083a57600080fd5b505afa15801561084e573d6000803e3d6000fd5b505050506040513d601f19601f82011682018060405250810190610872919061560b565b61087c848c6157bb565b6108869190615782565b905061089381848461230b565b6003546040517f054d50d400000000000000000000000000000000000000000000000000000000815260048101839052602481018690526044810185905291995073ffffffffffffffffffffffffffffffffffffffff169063054d50d49060640160206040518083038186803b15801561090c57600080fd5b505afa158015610920573d6000803e3d6000fd5b505050506040513d601f19601f82011682018060405250810190610944919061560b565b965084955050610aa8565b60008a73ffffffffffffffffffffffffffffffffffffffff166318160ddd6040518163ffffffff1660e01b815260040160206040518083038186803b15801561099757600080fd5b505afa1580156109ab573d6000803e3d6000fd5b505050506040513d601f19601f820116820180604052508101906109cf919061560b565b6109d9838c6157bb565b6109e39190615782565b90506109f081838561230b565b6003546040517f054d50d400000000000000000000000000000000000000000000000000000000815260048101839052602481018590526044810186905291995073ffffffffffffffffffffffffffffffffffffffff169063054d50d49060640160206040518083038186803b158015610a6957600080fd5b505afa158015610a7d573d6000803e3d6000fd5b505050506040513d601f19601f82011682018060405250810190610aa1919061560b565b9650839550505b5050505093509350939050565b6000806000808473ffffffffffffffffffffffffffffffffffffffff16630dfe16816040518163ffffffff1660e01b815260040160206040518083038186803b158015610b0157600080fd5b505afa158015610b15573d6000803e3d6000fd5b505050506040513d601f19601f82011682018060405250810190610b399190615226565b905060008573ffffffffffffffffffffffffffffffffffffffff1663d21220a76040518163ffffffff1660e01b815260040160206040518083038186803b158015610b8357600080fd5b505afa158015610b97573d6000803e3d6000fd5b505050506040513d601f19601f82011682018060405250810190610bbb9190615226565b90508173ffffffffffffffffffffffffffffffffffffffff168873ffffffffffffffffffffffffffffffffffffffff161480610c2257508073ffffffffffffffffffffffffffffffffffffffff168873ffffffffffffffffffffffffffffffffffffffff16145b610c88576040517f08c379a000000000000000000000000000000000000000000000000000000000815260206004820152601160248201527f5a61703a2057726f6e6720746f6b656e730000000000000000000000000000006044820152606401610501565b6000808773ffffffffffffffffffffffffffffffffffffffff16630902f1ac6040518163ffffffff1660e01b815260040160606040518083038186803b158015610cd157600080fd5b505afa158015610ce5573d6000803e3d6000fd5b505050506040513d601f19601f82011682018060405250810190610d0991906155b0565b506dffffffffffffffffffffffffffff1691506dffffffffffffffffffffffffffff1691508973ffffffffffffffffffffffffffffffffffffffff168473ffffffffffffffffffffffffffffffffffffffff161415610e2857829450610d7089838361230b565b6003546040517f054d50d400000000000000000000000000000000000000000000000000000000815260048101839052602481018590526044810184905291985073ffffffffffffffffffffffffffffffffffffffff169063054d50d49060640160206040518083038186803b158015610de957600080fd5b505afa158015610dfd573d6000803e3d6000fd5b505050506040513d601f19601f82011682018060405250810190610e21919061560b565b9550610aa8565b839450610e3689828461230b565b6003546040517f054d50d400000000000000000000000000000000000000000000000000000000815260048101839052602481018490526044810185905291985073ffffffffffffffffffffffffffffffffffffffff169063054d50d49060640160206040518083038186803b158015610eaf57600080fd5b505afa158015610ec3573d6000803e3d6000fd5b505050506040513d601f19601f82011682018060405250810190610ee7919061560b565b95505050505093509350939050565b60005473ffffffffffffffffffffffffffffffffffffffff163314610f77576040517f08c379a000000000000000000000000000000000000000000000000000000000815260206004820181905260248201527f4f776e61626c653a2063616c6c6572206973206e6f7420746865206f776e65726044820152606401610501565b610f9873ffffffffffffffffffffffffffffffffffffffff831633836124dd565b8173ffffffffffffffffffffffffffffffffffffffff167f74545154aac348a3eac92596bd1971957ca94795f4e954ec5f613b55fab7812982604051610fe091815260200190565b60405180910390a25050565b60026001541415611059576040517f08c379a000000000000000000000000000000000000000000000000000000000815260206004820152601f60248201527f5265656e7472616e637947756172643a207265656e7472616e742063616c6c006044820152606401610501565b6002600181905554604080517fd0e30db0000000000000000000000000000000000000000000000000000000008152905173ffffffffffffffffffffffffffffffffffffffff9092169163d0e30db0913491600480830192600092919082900301818588803b1580156110cb57600080fd5b505af11580156110df573d6000803e3d6000fd5b50506006546000935061110d925073ffffffffffffffffffffffffffffffffffffffff1690503485856125b6565b6040805134815260208101839052919250339173ffffffffffffffffffffffffffffffffffffffff8616916000917fa71185a0ff368de4e9e445d8601c4fbd50d9b674e4e43f5f8feafb8d64a2e13e910160405180910390a450506001805550565b600260015414156111dc576040517f08c379a000000000000000000000000000000000000000000000000000000000815260206004820152601f60248201527f5265656e7472616e637947756172643a207265656e7472616e742063616c6c006044820152606401610501565b600260015561120373ffffffffffffffffffffffffffffffffffffffff8416338585612ee7565b60065460009061122b90859073ffffffffffffffffffffffffffffffffffffffff1684612f4b565b6002546040517f2e1a7d4d0000000000000000000000000000000000000000000000000000000081526004810183905291925073ffffffffffffffffffffffffffffffffffffffff1690632e1a7d4d90602401600060405180830381600087803b15801561129857600080fd5b505af11580156112ac573d6000803e3d6000fd5b50506040805160008082526020820192839052935033925084916112d09190615673565b60006040518083038185875af1925050503d806000811461130d576040519150601f19603f3d011682016040523d82523d6000602084013e611312565b606091505b505090508061137d576040517f08c379a000000000000000000000000000000000000000000000000000000000815260206004820152601260248201527f424e423a207472616e73666572206661696c00000000000000000000000000006044820152606401610501565b6040805185815260208101849052339160009173ffffffffffffffffffffffffffffffffffffffff8916917f20ef8a4c975ec6c340089d8171a0f9c6a6324b11e3ecc4353155186f6c638c2891015b60405180910390a4505060018055505050565b60005473ffffffffffffffffffffffffffffffffffffffff163314611460576040517f08c379a000000000000000000000000000000000000000000000000000000000815260206004820181905260248201527f4f776e61626c653a2063616c6c6572206973206e6f7420746865206f776e65726044820152606401610501565b61146a60006136d9565b565b60008060008373ffffffffffffffffffffffffffffffffffffffff16630dfe16816040518163ffffffff1660e01b815260040160206040518083038186803b1580156114b757600080fd5b505afa1580156114cb573d6000803e3d6000fd5b505050506040513d601f19601f820116820180604052508101906114ef9190615226565b73ffffffffffffffffffffffffffffffffffffffff168873ffffffffffffffffffffffffffffffffffffffff1614806115d057508373ffffffffffffffffffffffffffffffffffffffff1663d21220a76040518163ffffffff1660e01b815260040160206040518083038186803b15801561156957600080fd5b505afa15801561157d573d6000803e3d6000fd5b505050506040513d601f19601f820116820180604052508101906115a19190615226565b73ffffffffffffffffffffffffffffffffffffffff168873ffffffffffffffffffffffffffffffffffffffff16145b611636576040517f08c379a000000000000000000000000000000000000000000000000000000000815260206004820152601160248201527f5a61703a2057726f6e6720746f6b656e300000000000000000000000000000006044820152606401610501565b8373ffffffffffffffffffffffffffffffffffffffff16630dfe16816040518163ffffffff1660e01b815260040160206040518083038186803b15801561167c57600080fd5b505afa158015611690573d6000803e3d6000fd5b505050506040513d601f19601f820116820180604052508101906116b49190615226565b73ffffffffffffffffffffffffffffffffffffffff168773ffffffffffffffffffffffffffffffffffffffff16148061179557508373ffffffffffffffffffffffffffffffffffffffff1663d21220a76040518163ffffffff1660e01b815260040160206040518083038186803b15801561172e57600080fd5b505afa158015611742573d6000803e3d6000fd5b505050506040513d601f19601f820116820180604052508101906117669190615226565b73ffffffffffffffffffffffffffffffffffffffff168773ffffffffffffffffffffffffffffffffffffffff16145b6117fb576040517f08c379a000000000000000000000000000000000000000000000000000000000815260206004820152601160248201527f5a61703a2057726f6e6720746f6b656e310000000000000000000000000000006044820152606401610501565b8673ffffffffffffffffffffffffffffffffffffffff168873ffffffffffffffffffffffffffffffffffffffff161415611891576040517f08c379a000000000000000000000000000000000000000000000000000000000815260206004820152601060248201527f5a61703a2053616d6520746f6b656e73000000000000000000000000000000006044820152606401610501565b6000808573ffffffffffffffffffffffffffffffffffffffff16630902f1ac6040518163ffffffff1660e01b815260040160606040518083038186803b1580156118da57600080fd5b505afa1580156118ee573d6000803e3d6000fd5b505050506040513d601f19601f8201168201806040525081019061191291906155b0565b506dffffffffffffffffffffffffffff1691506dffffffffffffffffffffffffffff1691508573ffffffffffffffffffffffffffffffffffffffff16630dfe16816040518163ffffffff1660e01b815260040160206040518083038186803b15801561197d57600080fd5b505afa158015611991573d6000803e3d6000fd5b505050506040513d601f19601f820116820180604052508101906119b59190615226565b73ffffffffffffffffffffffffffffffffffffffff168a73ffffffffffffffffffffffffffffffffffffffff161415611b3f576119f282886157bb565b6119fc828a6157bb565b11611a08576000611a0b565b60015b9250611a1a888884848761374e565b94508215611ada576003546040517f054d50d400000000000000000000000000000000000000000000000000000000815260048101879052602481018490526044810183905273ffffffffffffffffffffffffffffffffffffffff9091169063054d50d4906064015b60206040518083038186803b158015611a9b57600080fd5b505afa158015611aaf573d6000803e3d6000fd5b505050506040513d601f19601f82011682018060405250810190611ad3919061560b565b9350611c91565b6003546040517f054d50d400000000000000000000000000000000000000000000000000000000815260048101879052602481018390526044810184905273ffffffffffffffffffffffffffffffffffffffff9091169063054d50d490606401611a83565b611b4981886157bb565b611b53838a6157bb565b11611b5f576000611b62565b60015b9250611b71888883858761374e565b94508215611bde576003546040517f054d50d400000000000000000000000000000000000000000000000000000000815260048101879052602481018390526044810184905273ffffffffffffffffffffffffffffffffffffffff9091169063054d50d490606401611a83565b6003546040517f054d50d400000000000000000000000000000000000000000000000000000000815260048101879052602481018490526044810183905273ffffffffffffffffffffffffffffffffffffffff9091169063054d50d49060640160206040518083038186803b158015611c5657600080fd5b505afa158015611c6a573d6000803e3d6000fd5b505050506040513d601f19601f82011682018060405250810190611c8e919061560b565b93505b5050955095509592505050565b60026001541415611d0b576040517f08c379a000000000000000000000000000000000000000000000000000000000815260206004820152601f60248201527f5265656e7472616e637947756172643a207265656e7472616e742063616c6c006044820152606401610501565b6002600155611d3273ffffffffffffffffffffffffffffffffffffffff8516338685612ee7565b6000611d3f858584612f4b565b9050611d6273ffffffffffffffffffffffffffffffffffffffff851633836124dd565b6040805184815260208101839052339173ffffffffffffffffffffffffffffffffffffffff87811692908916917f20ef8a4c975ec6c340089d8171a0f9c6a6324b11e3ecc4353155186f6c638c2891016113cc565b60026001541415611e24576040517f08c379a000000000000000000000000000000000000000000000000000000000815260206004820152601f60248201527f5265656e7472616e637947756172643a207265656e7472616e742063616c6c006044820152606401610501565b6002600155611e4b73ffffffffffffffffffffffffffffffffffffffff8516333086612ee7565b6000611e59858585856125b6565b90503373ffffffffffffffffffffffffffffffffffffffff168373ffffffffffffffffffffffffffffffffffffffff168673ffffffffffffffffffffffffffffffffffffffff167fa71185a0ff368de4e9e445d8601c4fbd50d9b674e4e43f5f8feafb8d64a2e13e87856040516113cc929190918252602082015260400190565b60026001541415611f47576040517f08c379a000000000000000000000000000000000000000000000000000000000815260206004820152601f60248201527f5265656e7472616e637947756172643a207265656e7472616e742063616c6c006044820152606401610501565b6002600155611f6e73ffffffffffffffffffffffffffffffffffffffff8916333089612ee7565b611f9073ffffffffffffffffffffffffffffffffffffffff8816333088612ee7565b6000611fa28989898989898989613c2f565b6040805173ffffffffffffffffffffffffffffffffffffffff8881168252602082018b90529181018990526060810183905291925033918a8216918c16907f4ff29158e89c3af93365bf0fa1d14c5768109fb139f24b97c8a7d510b2d5e3f69060800160405180910390a450506001805550505050505050565b60026001541415612089576040517f08c379a000000000000000000000000000000000000000000000000000000000815260206004820152601f60248201527f5265656e7472616e637947756172643a207265656e7472616e742063616c6c006044820152606401610501565b6002600181905554604080517fd0e30db0000000000000000000000000000000000000000000000000000000008152905173ffffffffffffffffffffffffffffffffffffffff9092169163d0e30db0913491600480830192600092919082900301818588803b1580156120fb57600080fd5b505af115801561210f573d6000803e3d6000fd5b506121389350505073ffffffffffffffffffffffffffffffffffffffff88169050333088612ee7565b6006546000906121649073ffffffffffffffffffffffffffffffffffffffff1688348989898989613c2f565b6040805173ffffffffffffffffffffffffffffffffffffffff8881168252346020830152918101899052606081018390529192503391908916906000907f4ff29158e89c3af93365bf0fa1d14c5768109fb139f24b97c8a7d510b2d5e3f69060800160405180910390a45050600180555050505050565b60005473ffffffffffffffffffffffffffffffffffffffff16331461225c576040517f08c379a000000000000000000000000000000000000000000000000000000000815260206004820181905260248201527f4f776e61626c653a2063616c6c6572206973206e6f7420746865206f776e65726044820152606401610501565b73ffffffffffffffffffffffffffffffffffffffff81166122ff576040517f08c379a000000000000000000000000000000000000000000000000000000000815260206004820152602660248201527f4f776e61626c653a206e6577206f776e657220697320746865207a65726f206160448201527f64647265737300000000000000000000000000000000000000000000000000006064820152608401610501565b612308816136d9565b50565b600080612319600286615782565b6003546040517f054d50d400000000000000000000000000000000000000000000000000000000815260048101839052602481018790526044810186905291925060009173ffffffffffffffffffffffffffffffffffffffff9091169063054d50d49060640160206040518083038186803b15801561239757600080fd5b505afa1580156123ab573d6000803e3d6000fd5b505050506040513d601f19601f820116820180604052508101906123cf919061560b565b60035490915060009073ffffffffffffffffffffffffffffffffffffffff1663ad615dec846123fe818a61576a565b612408868a6157f8565b6040517fffffffff0000000000000000000000000000000000000000000000000000000060e086901b16815260048101939093526024830191909152604482015260640160206040518083038186803b15801561246457600080fd5b505afa158015612478573d6000803e3d6000fd5b505050506040513d601f19601f8201168201806040525081019061249c919061560b565b90506124c681836124ad86806157bb565b6124b791906157bb565b6124c19190615782565b614ad4565b6124d090886157f8565b93505050505b9392505050565b60405173ffffffffffffffffffffffffffffffffffffffff83166024820152604481018290526125b19084907fa9059cbb00000000000000000000000000000000000000000000000000000000906064015b604080517fffffffffffffffffffffffffffffffffffffffffffffffffffffffffffffffe08184030181529190526020810180517bffffffffffffffffffffffffffffffffffffffffffffffffffffffff167fffffffff0000000000000000000000000000000000000000000000000000000090931692909217909152614c5f565b505050565b60006103e8841015612624576040517f08c379a000000000000000000000000000000000000000000000000000000000815260206004820152601360248201527f5a61703a20416d6f756e7420746f6f206c6f77000000000000000000000000006044820152606401610501565b60008373ffffffffffffffffffffffffffffffffffffffff16630dfe16816040518163ffffffff1660e01b815260040160206040518083038186803b15801561266c57600080fd5b505afa158015612680573d6000803e3d6000fd5b505050506040513d601f19601f820116820180604052508101906126a49190615226565b905060008473ffffffffffffffffffffffffffffffffffffffff1663d21220a76040518163ffffffff1660e01b815260040160206040518083038186803b1580156126ee57600080fd5b505afa158015612702573d6000803e3d6000fd5b505050506040513d601f19601f820116820180604052508101906127269190615226565b90508173ffffffffffffffffffffffffffffffffffffffff168773ffffffffffffffffffffffffffffffffffffffff16148061278d57508073ffffffffffffffffffffffffffffffffffffffff168773ffffffffffffffffffffffffffffffffffffffff16145b6127f3576040517f08c379a000000000000000000000000000000000000000000000000000000000815260206004820152601160248201527f5a61703a2057726f6e6720746f6b656e730000000000000000000000000000006044820152606401610501565b604080516002808252606082018352600092602083019080368337019050509050878160008151811061284f577f4e487b7100000000000000000000000000000000000000000000000000000000600052603260045260246000fd5b602002602001019073ffffffffffffffffffffffffffffffffffffffff16908173ffffffffffffffffffffffffffffffffffffffff168152505060008060008873ffffffffffffffffffffffffffffffffffffffff16630902f1ac6040518163ffffffff1660e01b815260040160606040518083038186803b1580156128d457600080fd5b505afa1580156128e8573d6000803e3d6000fd5b505050506040513d601f19601f8201168201806040525081019061290c91906155b0565b506dffffffffffffffffffffffffffff1691506dffffffffffffffffffffffffffff1691506103e8821015801561294557506103e88110155b6129ab576040517f08c379a000000000000000000000000000000000000000000000000000000000815260206004820152601560248201527f5a61703a20526573657276657320746f6f206c6f7700000000000000000000006044820152606401610501565b8a73ffffffffffffffffffffffffffffffffffffffff168673ffffffffffffffffffffffffffffffffffffffff161415612ac6576129ea8a838361230b565b92508484600181518110612a27577f4e487b7100000000000000000000000000000000000000000000000000000000600052603260045260246000fd5b73ffffffffffffffffffffffffffffffffffffffff90921660209283029190910190910152600454612a598484615782565b1015612ac1576040517f08c379a000000000000000000000000000000000000000000000000000000000815260206004820152601f60248201527f5a61703a205175616e7469747920686967686572207468616e206c696d6974006044820152606401610501565b612ba8565b612ad18a828461230b565b92508584600181518110612b0e577f4e487b7100000000000000000000000000000000000000000000000000000000600052603260045260246000fd5b73ffffffffffffffffffffffffffffffffffffffff90921660209283029190910190910152600454612b408483615782565b1015612ba8576040517f08c379a000000000000000000000000000000000000000000000000000000000815260206004820152601f60248201527f5a61703a205175616e7469747920686967686572207468616e206c696d6974006044820152606401610501565b5050612bb389614d6b565b6003546040517f38ed173900000000000000000000000000000000000000000000000000000000815260009173ffffffffffffffffffffffffffffffffffffffff16906338ed173990612c129085908b908890309042906004016156e0565b600060405180830381600087803b158015612c2c57600080fd5b505af1158015612c40573d6000803e3d6000fd5b505050506040513d6000823e601f3d9081017fffffffffffffffffffffffffffffffffffffffffffffffffffffffffffffffe0168201604052612c8691908101906154b6565b90508973ffffffffffffffffffffffffffffffffffffffff168573ffffffffffffffffffffffffffffffffffffffff161415612cca57612cc584614d6b565b612cd3565b612cd385614d6b565b600354835173ffffffffffffffffffffffffffffffffffffffff9091169063e8e33700908590600090612d2f577f4e487b7100000000000000000000000000000000000000000000000000000000600052603260045260246000fd5b602002602001015185600181518110612d71577f4e487b7100000000000000000000000000000000000000000000000000000000600052603260045260246000fd5b602002602001015184600081518110612db3577f4e487b7100000000000000000000000000000000000000000000000000000000600052603260045260246000fd5b60200260200101518d612dc691906157f8565b85600181518110612e00577f4e487b7100000000000000000000000000000000000000000000000000000000600052603260045260246000fd5b60209081029190910101516040517fffffffff0000000000000000000000000000000000000000000000000000000060e087901b16815273ffffffffffffffffffffffffffffffffffffffff94851660048201529390921660248401526044830152606482015260016084820181905260a48201523360c48201524260e482015261010401606060405180830381600087803b158015612e9f57600080fd5b505af1158015612eb3573d6000803e3d6000fd5b505050506040513d601f19601f82011682018060405250810190612ed79190615646565b9c9b505050505050505050505050565b60405173ffffffffffffffffffffffffffffffffffffffff80851660248301528316604482015260648101829052612f459085907f23b872dd000000000000000000000000000000000000000000000000000000009060840161252f565b50505050565b6000808473ffffffffffffffffffffffffffffffffffffffff16630dfe16816040518163ffffffff1660e01b815260040160206040518083038186803b158015612f9457600080fd5b505afa158015612fa8573d6000803e3d6000fd5b505050506040513d601f19601f82011682018060405250810190612fcc9190615226565b905060008573ffffffffffffffffffffffffffffffffffffffff1663d21220a76040518163ffffffff1660e01b815260040160206040518083038186803b15801561301657600080fd5b505afa15801561302a573d6000803e3d6000fd5b505050506040513d601f19601f8201168201806040525081019061304e9190615226565b90508173ffffffffffffffffffffffffffffffffffffffff168573ffffffffffffffffffffffffffffffffffffffff1614806130b557508073ffffffffffffffffffffffffffffffffffffffff168573ffffffffffffffffffffffffffffffffffffffff16145b61311b576040517f08c379a000000000000000000000000000000000000000000000000000000000815260206004820152601460248201527f5a61703a20546f6b656e206e6f7420696e204c500000000000000000000000006044820152606401610501565b6040517f89afcb44000000000000000000000000000000000000000000000000000000008152306004820152600090819073ffffffffffffffffffffffffffffffffffffffff8916906389afcb44906024016040805180830381600087803b15801561318657600080fd5b505af115801561319a573d6000803e3d6000fd5b505050506040513d601f19601f820116820180604052508101906131be9190615623565b915091506103e8821015613253576040517f08c379a0000000000000000000000000000000000000000000000000000000008152602060048201526024808201527f50616e63616b65526f757465723a20494e53554646494349454e545f415f414d60448201527f4f554e54000000000000000000000000000000000000000000000000000000006064820152608401610501565b6103e88110156132e4576040517f08c379a0000000000000000000000000000000000000000000000000000000008152602060048201526024808201527f50616e63616b65526f757465723a20494e53554646494349454e545f425f414d60448201527f4f554e54000000000000000000000000000000000000000000000000000000006064820152608401610501565b6040805160028082526060820183526000926020830190803683370190505090508781600181518110613340577f4e487b7100000000000000000000000000000000000000000000000000000000600052603260045260246000fd5b73ffffffffffffffffffffffffffffffffffffffff9283166020918202929092010152600090868116908a1614156134695784826000815181106133ad577f4e487b7100000000000000000000000000000000000000000000000000000000600052603260045260246000fd5b73ffffffffffffffffffffffffffffffffffffffff92831660209182029290920101526040517f70a08231000000000000000000000000000000000000000000000000000000008152306004820152908616906370a082319060240160206040518083038186803b15801561342157600080fd5b505afa158015613435573d6000803e3d6000fd5b505050506040513d601f19601f82011682018060405250810190613459919061560b565b905061346485614d6b565b61355b565b85826000815181106134a4577f4e487b7100000000000000000000000000000000000000000000000000000000600052603260045260246000fd5b73ffffffffffffffffffffffffffffffffffffffff92831660209182029290920101526040517f70a08231000000000000000000000000000000000000000000000000000000008152306004820152908716906370a082319060240160206040518083038186803b15801561351857600080fd5b505afa15801561352c573d6000803e3d6000fd5b505050506040513d601f19601f82011682018060405250810190613550919061560b565b905061355b86614d6b565b6003546040517f38ed173900000000000000000000000000000000000000000000000000000000815273ffffffffffffffffffffffffffffffffffffffff909116906338ed1739906135b99084908c908790309042906004016156e0565b600060405180830381600087803b1580156135d357600080fd5b505af11580156135e7573d6000803e3d6000fd5b505050506040513d6000823e601f3d9081017fffffffffffffffffffffffffffffffffffffffffffffffffffffffffffffffe016820160405261362d91908101906154b6565b506040517f70a0823100000000000000000000000000000000000000000000000000000000815230600482015273ffffffffffffffffffffffffffffffffffffffff8a16906370a082319060240160206040518083038186803b15801561369357600080fd5b505afa1580156136a7573d6000803e3d6000fd5b505050506040513d601f19601f820116820180604052508101906136cb919061560b565b9a9950505050505050505050565b6000805473ffffffffffffffffffffffffffffffffffffffff8381167fffffffffffffffffffffffff0000000000000000000000000000000000000000831681178455604051919092169283917f8be0079c531659141344cd1fd0a4f28419497f9722a3daafe3b4186f6b6457e09190a35050565b60008061375b85876157bb565b61376585896157bb565b11613771576000613774565b60015b9050821515811515146137e3576040517f08c379a000000000000000000000000000000000000000000000000000000000815260206004820152601a60248201527f5a61703a2057726f6e6720747261646520646972656374696f6e0000000000006044820152606401610501565b8015613a095760006002856137f8888a6157bb565b6138029190615782565b61380c908a6157f8565b6138169190615782565b6003546040517f054d50d400000000000000000000000000000000000000000000000000000000815260048101839052602481018990526044810188905291925060009173ffffffffffffffffffffffffffffffffffffffff9091169063054d50d49060640160206040518083038186803b15801561389457600080fd5b505afa1580156138a8573d6000803e3d6000fd5b505050506040513d601f19601f820116820180604052508101906138cc919061560b565b60035490915060009073ffffffffffffffffffffffffffffffffffffffff1663ad615dec846138fb818c61576a565b613905868c6157f8565b6040517fffffffff0000000000000000000000000000000000000000000000000000000060e086901b16815260048101939093526024830191909152604482015260640160206040518083038186803b15801561396157600080fd5b505afa158015613975573d6000803e3d6000fd5b505050506040513d601f19601f82011682018060405250810190613999919061560b565b905060026139a783896157f8565b6139b1858b61576a565b6139bb908c6157bb565b6139c59190615782565b6139cf908c6157f8565b6139d99190615782565b92506139ea81836124ad86806157bb565b6139f58460026157bb565b6139ff91906157f8565b9450505050613c25565b6000600286613a18878b6157bb565b613a229190615782565b613a2c90896157f8565b613a369190615782565b6003546040517f054d50d400000000000000000000000000000000000000000000000000000000815260048101839052602481018890526044810189905291925060009173ffffffffffffffffffffffffffffffffffffffff9091169063054d50d49060640160206040518083038186803b158015613ab457600080fd5b505afa158015613ac8573d6000803e3d6000fd5b505050506040513d601f19601f82011682018060405250810190613aec919061560b565b60035490915060009073ffffffffffffffffffffffffffffffffffffffff1663ad615dec84613b1b818b61576a565b613b25868d6157f8565b6040517fffffffff0000000000000000000000000000000000000000000000000000000060e086901b16815260048101939093526024830191909152604482015260640160206040518083038186803b158015613b8157600080fd5b505afa158015613b95573d6000803e3d6000fd5b505050506040513d601f19601f82011682018060405250810190613bb9919061560b565b90506002613bc7838a6157f8565b613bd1858a61576a565b613bdb908d6157bb565b613be59190615782565b613bef908b6157f8565b613bf99190615782565b9250613c0a81836124ad86806157bb565b613c158460026157bb565b613c1f91906157f8565b94505050505b5095945050505050565b60008473ffffffffffffffffffffffffffffffffffffffff16630dfe16816040518163ffffffff1660e01b815260040160206040518083038186803b158015613c7757600080fd5b505afa158015613c8b573d6000803e3d6000fd5b505050506040513d601f19601f82011682018060405250810190613caf9190615226565b73ffffffffffffffffffffffffffffffffffffffff168973ffffffffffffffffffffffffffffffffffffffff161480613d9057508473ffffffffffffffffffffffffffffffffffffffff1663d21220a76040518163ffffffff1660e01b815260040160206040518083038186803b158015613d2957600080fd5b505afa158015613d3d573d6000803e3d6000fd5b505050506040513d601f19601f82011682018060405250810190613d619190615226565b73ffffffffffffffffffffffffffffffffffffffff168973ffffffffffffffffffffffffffffffffffffffff16145b613df6576040517f08c379a000000000000000000000000000000000000000000000000000000000815260206004820152601160248201527f5a61703a2057726f6e6720746f6b656e300000000000000000000000000000006044820152606401610501565b8473ffffffffffffffffffffffffffffffffffffffff16630dfe16816040518163ffffffff1660e01b815260040160206040518083038186803b158015613e3c57600080fd5b505afa158015613e50573d6000803e3d6000fd5b505050506040513d601f19601f82011682018060405250810190613e749190615226565b73ffffffffffffffffffffffffffffffffffffffff168873ffffffffffffffffffffffffffffffffffffffff161480613f5557508473ffffffffffffffffffffffffffffffffffffffff1663d21220a76040518163ffffffff1660e01b815260040160206040518083038186803b158015613eee57600080fd5b505afa158015613f02573d6000803e3d6000fd5b505050506040513d601f19601f82011682018060405250810190613f269190615226565b73ffffffffffffffffffffffffffffffffffffffff168873ffffffffffffffffffffffffffffffffffffffff16145b613fbb576040517f08c379a000000000000000000000000000000000000000000000000000000000815260206004820152601160248201527f5a61703a2057726f6e6720746f6b656e310000000000000000000000000000006044820152606401610501565b8773ffffffffffffffffffffffffffffffffffffffff168973ffffffffffffffffffffffffffffffffffffffff161415614051576040517f08c379a000000000000000000000000000000000000000000000000000000000815260206004820152601060248201527f5a61703a2053616d6520746f6b656e73000000000000000000000000000000006044820152606401610501565b60008060008773ffffffffffffffffffffffffffffffffffffffff16630902f1ac6040518163ffffffff1660e01b815260040160606040518083038186803b15801561409c57600080fd5b505afa1580156140b0573d6000803e3d6000fd5b505050506040513d601f19601f820116820180604052508101906140d491906155b0565b506dffffffffffffffffffffffffffff1691506dffffffffffffffffffffffffffff1691506103e8821015801561410d57506103e88110155b614173576040517f08c379a000000000000000000000000000000000000000000000000000000000815260206004820152601560248201527f5a61703a20526573657276657320746f6f206c6f7700000000000000000000006044820152606401610501565b8773ffffffffffffffffffffffffffffffffffffffff16630dfe16816040518163ffffffff1660e01b815260040160206040518083038186803b1580156141b957600080fd5b505afa1580156141cd573d6000803e3d6000fd5b505050506040513d601f19601f820116820180604052508101906141f19190615226565b73ffffffffffffffffffffffffffffffffffffffff168c73ffffffffffffffffffffffffffffffffffffffff1614156142ae576142318a8a84848961374e565b6004549093506142418484615782565b10156142a9576040517f08c379a000000000000000000000000000000000000000000000000000000000815260206004820152601f60248201527f5a61703a205175616e7469747920686967686572207468616e206c696d6974006044820152606401610501565b614333565b6142bb8a8a83858961374e565b6004549093506142cb8483615782565b1015614333576040517f08c379a000000000000000000000000000000000000000000000000000000000815260206004820152601f60248201527f5a61703a205175616e7469747920686967686572207468616e206c696d6974006044820152606401610501565b50508481111561439f576040517f08c379a000000000000000000000000000000000000000000000000000000000815260206004820152601c60248201527f5a61703a20416d6f756e7420746f207377617020746f6f2068696768000000006044820152606401610501565b60408051600280825260608201835260009260208301908036833701905050905083156144be578a81600081518110614401577f4e487b7100000000000000000000000000000000000000000000000000000000600052603260045260246000fd5b602002602001019073ffffffffffffffffffffffffffffffffffffffff16908173ffffffffffffffffffffffffffffffffffffffff16815250508981600181518110614476577f4e487b7100000000000000000000000000000000000000000000000000000000600052603260045260246000fd5b602002602001019073ffffffffffffffffffffffffffffffffffffffff16908173ffffffffffffffffffffffffffffffffffffffff16815250506144b98b614d6b565b6145b1565b89816000815181106144f9577f4e487b7100000000000000000000000000000000000000000000000000000000600052603260045260246000fd5b602002602001019073ffffffffffffffffffffffffffffffffffffffff16908173ffffffffffffffffffffffffffffffffffffffff16815250508a8160018151811061456e577f4e487b7100000000000000000000000000000000000000000000000000000000600052603260045260246000fd5b602002602001019073ffffffffffffffffffffffffffffffffffffffff16908173ffffffffffffffffffffffffffffffffffffffff16815250506145b18a614d6b565b6003546040517f38ed173900000000000000000000000000000000000000000000000000000000815260009173ffffffffffffffffffffffffffffffffffffffff16906338ed1739906146109086908a908790309042906004016156e0565b600060405180830381600087803b15801561462a57600080fd5b505af115801561463e573d6000803e3d6000fd5b505050506040513d6000823e601f3d9081017fffffffffffffffffffffffffffffffffffffffffffffffffffffffffffffffe016820160405261468491908101906154b6565b905084156148ab576146958b614d6b565b600354825173ffffffffffffffffffffffffffffffffffffffff9091169063e8e337009084906000906146f1577f4e487b7100000000000000000000000000000000000000000000000000000000600052603260045260246000fd5b602002602001015184600181518110614733577f4e487b7100000000000000000000000000000000000000000000000000000000600052603260045260246000fd5b602002602001015184600081518110614775577f4e487b7100000000000000000000000000000000000000000000000000000000600052603260045260246000fd5b60200260200101518e61478891906157f8565b856001815181106147c2577f4e487b7100000000000000000000000000000000000000000000000000000000600052603260045260246000fd5b60200260200101518e6147d5919061576a565b6040517fffffffff0000000000000000000000000000000000000000000000000000000060e087901b16815273ffffffffffffffffffffffffffffffffffffffff94851660048201529390921660248401526044830152606482015260016084820181905260a48201523360c48201524260e482015261010401606060405180830381600087803b15801561486957600080fd5b505af115801561487d573d6000803e3d6000fd5b505050506040513d601f19601f820116820180604052508101906148a19190615646565b9550614ac5915050565b6148b48c614d6b565b600354825173ffffffffffffffffffffffffffffffffffffffff9091169063e8e33700908490600090614910577f4e487b7100000000000000000000000000000000000000000000000000000000600052603260045260246000fd5b602002602001015184600181518110614952577f4e487b7100000000000000000000000000000000000000000000000000000000600052603260045260246000fd5b602002602001015184600081518110614994577f4e487b7100000000000000000000000000000000000000000000000000000000600052603260045260246000fd5b60200260200101518d6149a791906157f8565b856001815181106149e1577f4e487b7100000000000000000000000000000000000000000000000000000000600052603260045260246000fd5b60200260200101518f6149f4919061576a565b6040517fffffffff0000000000000000000000000000000000000000000000000000000060e087901b16815273ffffffffffffffffffffffffffffffffffffffff94851660048201529390921660248401526044830152606482015260016084820181905260a48201523360c48201524260e482015261010401606060405180830381600087803b158015614a8857600080fd5b505af1158015614a9c573d6000803e3d6000fd5b505050506040513d601f19601f82011682018060405250810190614ac09190615646565b955050505b50505098975050505050505050565b600081614ae357506000919050565b8160017001000000000000000000000000000000008210614b095760809190911c9060401b5b680100000000000000008210614b245760409190911c9060201b5b6401000000008210614b3b5760209190911c9060101b5b620100008210614b505760109190911c9060081b5b6101008210614b645760089190911c9060041b5b60108210614b775760049190911c9060021b5b60088210614b835760011b5b6001614b8f8286615782565b614b99908361576a565b901c90506001614ba98286615782565b614bb3908361576a565b901c90506001614bc38286615782565b614bcd908361576a565b901c90506001614bdd8286615782565b614be7908361576a565b901c90506001614bf78286615782565b614c01908361576a565b901c90506001614c118286615782565b614c1b908361576a565b901c90506001614c2b8286615782565b614c35908361576a565b901c90506000614c458286615782565b9050808210614c545780614c56565b815b95945050505050565b6000614cc1826040518060400160405280602081526020017f5361666545524332303a206c6f772d6c6576656c2063616c6c206661696c65648152508573ffffffffffffffffffffffffffffffffffffffff16614e6c9092919063ffffffff16565b8051909150156125b15780806020019051810190614cdf9190615594565b6125b1576040517f08c379a000000000000000000000000000000000000000000000000000000000815260206004820152602a60248201527f5361666545524332303a204552433230206f7065726174696f6e20646964206e60448201527f6f742073756363656564000000000000000000000000000000000000000000006064820152608401610501565b6005546040517fdd62ed3e00000000000000000000000000000000000000000000000000000000815230600482015273ffffffffffffffffffffffffffffffffffffffff918216602482015269d3c21bcecceda10000009183169063dd62ed3e9060440160206040518083038186803b158015614de757600080fd5b505afa158015614dfb573d6000803e3d6000fd5b505050506040513d601f19601f82011682018060405250810190614e1f919061560b565b1015612308576005546123089073ffffffffffffffffffffffffffffffffffffffff83811691167fffffffffffffffffffffffffffffffffffffffffffffffffffffffffffffffff614e83565b6060614e7b8484600085615014565b949350505050565b801580614f3257506040517fdd62ed3e00000000000000000000000000000000000000000000000000000000815230600482015273ffffffffffffffffffffffffffffffffffffffff838116602483015284169063dd62ed3e9060440160206040518083038186803b158015614ef857600080fd5b505afa158015614f0c573d6000803e3d6000fd5b505050506040513d601f19601f82011682018060405250810190614f30919061560b565b155b614fbe576040517f08c379a000000000000000000000000000000000000000000000000000000000815260206004820152603660248201527f5361666545524332303a20617070726f76652066726f6d206e6f6e2d7a65726f60448201527f20746f206e6f6e2d7a65726f20616c6c6f77616e6365000000000000000000006064820152608401610501565b60405173ffffffffffffffffffffffffffffffffffffffff83166024820152604481018290526125b19084907f095ea7b3000000000000000000000000000000000000000000000000000000009060640161252f565b6060824710156150a6576040517f08c379a000000000000000000000000000000000000000000000000000000000815260206004820152602660248201527f416464726573733a20696e73756666696369656e742062616c616e636520666f60448201527f722063616c6c00000000000000000000000000000000000000000000000000006064820152608401610501565b843b61510e576040517f08c379a000000000000000000000000000000000000000000000000000000000815260206004820152601d60248201527f416464726573733a2063616c6c20746f206e6f6e2d636f6e74726163740000006044820152606401610501565b6000808673ffffffffffffffffffffffffffffffffffffffff1685876040516151379190615673565b60006040518083038185875af1925050503d8060008114615174576040519150601f19603f3d011682016040523d82523d6000602084013e615179565b606091505b5091509150615189828286615194565b979650505050505050565b606083156151a35750816124d6565b8251156151b35782518084602001fd5b816040517f08c379a0000000000000000000000000000000000000000000000000000000008152600401610501919061568f565b80516dffffffffffffffffffffffffffff8116811461520557600080fd5b919050565b60006020828403121561521b578081fd5b81356124d681615899565b600060208284031215615237578081fd5b81516124d681615899565b60008060008060808587031215615257578283fd5b843561526281615899565b9350602085013561527281615899565b93969395505050506040820135916060013590565b600080600080600060a0868803121561529e578081fd5b85356152a981615899565b945060208601356152b981615899565b9350604086013592506060860135915060808601356152d781615899565b809150509295509295909350565b600080600080600080600080610100898b031215615301578283fd5b883561530c81615899565b9750602089013561531c81615899565b96506040890135955060608901359450608089013561533a81615899565b935060a0890135925060c0890135915060e0890135615358816158bb565b809150509295985092959890939650565b6000806040838503121561537b578182fd5b823561538681615899565b946020939093013593505050565b6000806000606084860312156153a8578283fd5b83356153b381615899565b92506020840135915060408401356153ca81615899565b809150509250925092565b600080600080608085870312156153ea578384fd5b84356153f581615899565b935060208501359250604085013561540c81615899565b9396929550929360600135925050565b60008060008060008060c08789031215615434578182fd5b863561543f81615899565b955060208701359450604087013561545681615899565b9350606087013592506080870135915060a0870135615474816158bb565b809150509295509295509295565b600080600060608486031215615496578081fd5b83356154a181615899565b95602085013595506040909401359392505050565b600060208083850312156154c8578182fd5b825167ffffffffffffffff808211156154df578384fd5b818501915085601f8301126154f2578384fd5b8151818111156155045761550461586a565b8060051b6040517fffffffffffffffffffffffffffffffffffffffffffffffffffffffffffffffe0603f830116810181811085821117156155475761554761586a565b604052828152858101935084860182860187018a1015615565578788fd5b8795505b83861015615587578051855260019590950194938601938601615569565b5098975050505050505050565b6000602082840312156155a5578081fd5b81516124d6816158bb565b6000806000606084860312156155c4578081fd5b6155cd846151e7565b92506155db602085016151e7565b9150604084015163ffffffff811681146153ca578182fd5b600060208284031215615604578081fd5b5035919050565b60006020828403121561561c578081fd5b5051919050565b60008060408385031215615635578182fd5b505080516020909101519092909150565b60008060006060848603121561565a578081fd5b8351925060208401519150604084015190509250925092565b6000825161568581846020870161580f565b9190910192915050565b60208152600082518060208401526156ae81604085016020870161580f565b601f017fffffffffffffffffffffffffffffffffffffffffffffffffffffffffffffffe0169190910160400192915050565b600060a082018783526020878185015260a0604085015281875180845260c0860191508289019350845b8181101561573c57845173ffffffffffffffffffffffffffffffffffffffff168352938301939183019160010161570a565b505073ffffffffffffffffffffffffffffffffffffffff969096166060850152505050608001529392505050565b6000821982111561577d5761577d61583b565b500190565b6000826157b6577f4e487b710000000000000000000000000000000000000000000000000000000081526012600452602481fd5b500490565b6000817fffffffffffffffffffffffffffffffffffffffffffffffffffffffffffffffff04831182151516156157f3576157f361583b565b500290565b60008282101561580a5761580a61583b565b500390565b60005b8381101561582a578181015183820152602001615812565b83811115612f455750506000910152565b7f4e487b7100000000000000000000000000000000000000000000000000000000600052601160045260246000fd5b7f4e487b7100000000000000000000000000000000000000000000000000000000600052604160045260246000fd5b73ffffffffffffffffffffffffffffffffffffffff8116811461230857600080fd5b801515811461230857600080fdfea26469706673582212207b672bf382c842afa6f25dc3a982b4d3a04065451edd2fd7f02789f4f8224aaa64736f6c63430008040033",
  "linkReferences": {},
  "deployedLinkReferences": {}
}